:100508000C123F065B4F666D7D277F6FFF00010869
:0105180001E1
:10034400E4F580EF14B40800505490035C75F00396
:10035400A4C58325F0C583730203740203780203E2
:100364007C02038002038402038C02039402039C34
:10037400D2A4800ED2A48012D2A48016D2A4801A51
:10038400C2A4D2A3D2A28016C2A4D2A3C2A2800EB7
:10039400C2A4C2A3D2A28006C2A4C2A3C2A27412DF
:0603A4002DF8E6F58022B1
:09000E00AE0574092FF8A60622C4
:1005240074092508F8E6FD7C00AF081203440508A9
:0A053400E508C394094003750801AF
:01053E00229A
:0A051900083C0B0703050506000867
:03001700020000E4
:10055400C2A57F017E0012053FD2A57F017E000265
:02056400053F51
:10046E002001351533E5337026200023E52960057C
:10047E001529753363E529701FE52A6005152A7560
:10048E00293CE52A701220000F753363D20022E555
:08049E00337005300002D201A9
:0104A6002233
:03000B0002001ED2
:10001E00C0E0C0F0C083C082C0D075D000C000C0A8
:0D002E0001C002C003C004C005C006C00729
:10003B00758A18758CFC1205242002150521E52103
:10004B00C3941450030200FF7521001201EF02004C
:10005B00FF0522E522C3940A400675220012046EA6
:10006B0030010E0523E523C394804005752300B2B0
:10007B00033001030200FF0525E52570020524E589
:10008B0029D394134016D3E52594F4E52494014029
:10009B00637524007525001205548058E529D39407
:1000AB00094013E529D39413500CE525942CE52432
:1000BB00940140408032E529D394044013E529D3C1
:1000CB009409500CE5259464E5249400402680188F
:1000DB00E529C39401401BE529D394045014E5256D
:1000EB009450E5249400400C752400752500B28EC5
:0400FB008002D28E1F
:1000FF00D007D006D005D004D003D002D001D00055
:0B010F00D0D0D082D083D0F0D0E032FE
:03001B000204CB11
:0204CB00C0E08F
:1004CD003002172001140527E52770020526758BCC
:0A04DD0018758DFCB2A5B2A6B2A7F7
:0304E700D0E03230
:1004A70075480174342548F8E6FF743C2548F8E69A
:1004B700B50704D20280031200170548E548C39424
:0304C7000840E00A
:0104CA00220F
:100410001200038F44E5446054C3940B5021E52837
:10042000C39407504805280547E544640A600874EA
:100430002B2547F8A64422742B2547F8E4F622E53D
:1004400044C3940D5012E528940040211528742BC4
:100450002547F8760B154722E4FF742B2FF8E6FEAC
:0D04600074342FF8A6060FBF08F01204A791
:01046D00226C
:10011A00E4F52A75292C7533631204EAC202C28EE9
:10012A00E4F545742B2545F8760B74342545F876A5
:10013A000B0545E545B408EB200221120410E4F54D
:10014A0045E545C3940850F0E54504FF742B254561
:0F015A00F8E6FD7C0012000E054580E530031726
:10016900754601E546C3940950CF7D0B7C00AF4627
:0701790012000E054680ECA8
:10018000E52A75F00A84FD7C007F0112000EE52A45
:1001900075F00A84E5F0FD7C007F0212000E7D0BF5
:1001A0007C007F0312000EE52975F00A84FD7C00B7
:1001B0007F0412000EE52975F00A84E5F0FD7C004D
:1001C0007F0512000E7D0B7C007F0612000EE533CA
:1001D00075F00A84FD7C007F0712000EE53375F090
:0F01E0000A84E5F0FD7C007F0812000E02014248
:1004EA00758911758A18758CFC758B14758DFCD2FB
:0E04FA008CD28ED2AFD2A9D2ABC2B9C2BB2275
:05000300E4AF4BF54BDA
:0100080022D5
:1003AA00E4FF7590FFC2932097010F2096027F0504
:1003BA002095027F092094027F0D7590FFC292203A
:1003CA0097027F022096027F062095027F0A2094D8
:1003DA00027F0E7590FFC2912097027F032096023A
:1003EA007F072095027F0B2094027F0F7590FFC232
:1003FA00902097027F042096027F082095027F0CA6
:05040A002094027F10A8
:01040F0022CA
:1001EF0085494A1203AA8F49E54AB40107E54970C8
:1001FF0003754B01E54AB40207E5497003754B02DD
:10020F00E54AB40307E5497003754B03E54AB404A7
:10021F0007E5497003754B04E54AB40507E54970D6
:10022F0003754B05E54AB40607E5497003754B06A0
:10023F00E54AB40707E5497003754B07E54AB4086B
:10024F0007E5497003754B08E54AB40907E549709E
:10025F0003754B09E54AB40A07E5497003754B0A64
:10026F00E54AB40B07E5497003754B0BE54AB40C2F
:10027F0007E5497003754B0CE54AB40D07E5497066
:10028F0003754B0DE54AB40E07E5497003754B0E28
:10029F00E54AB40F07E5497003754B0FE54AB410F3
:0802AF0007E5497003754B10CF
:0102B7002224
:10053F00EF1FAC0670011E4C600A7D027CEFDCFEE3
:04054F00DDFC80EC63
:010553002285
:030000000202B841
:0C02B800787FE4F6D8FD75814B0202FF50
:1002C40002011AE493A3F8E493A34003F68001F235
:1002D40008DFF48029E493A3F85407240CC8C3333B
:1002E400C4540F4420C8834004F456800146F6DF0A
:1002F400E4800B0102040810204080900508E47E8D
:10030400019360BCA3FF543F30E509541FFEE493FE
:10031400A360010ECF54C025E060A840B8E493A3C5
:10032400FAE493A3F8E493A3C8C582C8CAC583CAF0
:10033400F0A3C8C582C8CAC583CADFE9DEE780BEA8
:0105230000D7
:00000001FF
